:0300000002149057
:0C149000787FE4F6D8FD7581070214D7C0
:10125300410012004100140041001EFF41002FFF16
:1012630044004200000000410013324A0038FC44AD
:10127300795DC59DBD54FDDD480016A9F101004609
:1012830000000048001F212C25017B0000004800BE
:101293000AB82D25015F000000480001F1F50100A7
:1012A300C7000000480027F1446D019F000000487B
:1012B3000030252C2501BF0000004100090041003A
:0212C300000029
:101675007F0890007FE4F0A3DFFC900000E0247F6A
:10168500F582E43400F58374FDF07F407E1F121966
:1016950067900000E0045407F090001EE024C87035
:1016A50019900000E07013900009E004F0E4F5A043
:0A16B5007FA07E8612196775A0FF62
:0116BF002208
:10103300E4FF900012E01204AC106400108401106D
:10104300A40210C40310E404110480111A811122B4
:1010530082113C83113F841142C31145CB0000111F
:1010630048E4FF74162FF582E43400F583E0FE7440
:101073007F2FF582E43400F583EEF00FEFB408E33D
:1010830022E4FF741F2FF582E43400F583E0FE743D
:101093007F2FF582E43400F583EEF00FEFB408E31D
:1010A30022E4FF740A2FF582E43400F583E0FE7432
:1010B3007F2FF582E43400F583EEF00FEFB408E3FD
:1010C30022E4FF74012FF582E43400F583E0FE741B
:1010D3007F2FF582E43400F583EEF00FEFB408E3DD
:1010E30022E4FF74272FF582E43400F583E0FE74D5
:1010F3007F2FF582E43400F583EEF00FEFB408E3BD
:101103002212078490008374A9F0A374F1F0A374EE
:101113002DF0A374B8F022900013E0FF0213DC1249
:1011230007849000421204A0900042E0FCA3E0FD7B
:10113300A3E0FEA3E0FF020F020217450209AD027E
:051143000BAF120D804E
:011148002284
:1011490090001EE0FFB4FF012290002FE0F460033D
:10115900021252900012E0FEC413135403704AEFB6
:1011690024C8603224FE601A146003021252EE246D
:1011790004FFE433FE7C007D05120407900012EDA4
:10118900F022900012E02401FFE433FE7C007D058B
:10119900120407EDF022900012E04480F0648460AC
:1011A90003021252900062F022900012E0FFC41371
:1011B90013540364026003021252EF648470030241
:1011C900125290001EE024C8606524FE602C146051
:1011D9001024027074900012E0547FF0C2AFC292E2
:1011E90022900012E0B48108900015E024098017CC
:1011F900900012E064837051802C900012E0B48159
:101209001E900015E02401FFE433FE7C007D0A12E4
:101219000407AF05EFF0121708900013EFF02290C2
:101229000012E0B48323900014E0045401F02290EA
:101239000012E0FFB48312900014E033333354F802
:0A1249002440FEEF4E900012F02248
:1018740012000312194A1217EA1213181217809051
:10188400001EEFF01211491210331217B990001E06
:07189400E090002FF080E559
:0B12C50048007FA9F101004400000078
:050003007FA402184A71
:05184A00900069EFF0C1
:10184F00C294E4A3F0900069E0FF339297EF25E094
:10185F00F0D295121971C29590006AE004F0E0C3BE
:04186F00940840E1B8
:011873002252
:101780007F1512184AD297121971E4900067F0D2AF
:1017900095900068E0FF25E0F0309704E04401F008
:1017A000121971C295900067E004F0E0C3940840FC
:0817B000DEC297900068E0FF23
:0117B800220E
:1017B900E4900067F0900067E0FFC394085021EFC0
:1017C9002490FF12184A900067E0247FF582E434E0
:1017D90000F583E0FF12184A900067E004F080D515
:0117E90022DD
:10194A0012195A7FCC1219317F4412193102195ACD
:0C195A00C2937FF0DFFED2937FF0DFFE2F
:01196600225E
:101931007E08C2937D02DDFEEF1392937D1EDDFED4
:08194100D293EFC313FFDEEAAD
:01194900227B
:1018BE007E08EFC313FFC2937D02DDFED2937D043B
:1018CE00DDFE309304EF4480FF7D1EDDFED293DEFD
:0118DE00E128
:0118DF0022E6
:1007840012195A7FCC1219317F4412193112195A95
:100794007FCC1219317FBE1219311218BEAC071268
:1007A40018BEAE0712195AAF06EF54F064F0701475
:1007B400EC700AECF404FCEEF404FE8007ECF404A0
:1007C400FCEEF4FEAF06EFC454F0FFECC4540F4F3C
:1007D40075F06484AEF0EE75F00A84900067F0EE74
:1007E40075F00A84A3E5F0F0EC540FFF7E007C0260
:1007F4007D711203F5AB07AA060C7DE8120407A36A
:10080400EFF0AE02AF037C037DE81204077E007FA5
:1008140064CFCDCFCECCCE120407A3EFF090006905
:10082400E0FCE41203407BCD7ACC79CC783D120114
:1008340006C004C005C006C007900067E075F00A52
:10084400A4FFA3E07C002FFDEC35F0FCE412033B95
:10085400D003D002D001D000120015C004C005C0DE
:1008640006C00790006AE0FCE41203407B0A7AD7D2
:100874007923783C120106D003D002D001D00012B3
:10088400001590006B1204A0E4FFFE7DAA7C429048
:10089400006BE0F8A3E0F9A3E0FAA3E0FB1202ACDA
:1008A4007005FFFEFDFC22E4FFFEFDFC900042E02B
:1008B400F8A3E0F9A3E0FAA3E0FB1202AC701490F1
:1008C400006BE0FCA3E0FDA3E0FEA3E0FF90004288
:1008D4001204A0900042E0F8A3E0F9A3E0FAA3E038
:1008E400FB90006BE0FCA3E0FDA3E0FEA3E0FF129D
:1008F4000011E4FBFAF9F81202AC5013900042E044
:10090400F8A3E0F9A3E0FAA3E0FB90006B80119058
:10091400006BE0F8A3E0F9A3E0FAA3E0FB90004247
:10092400E0FCA3E0FDA3E0FEA3E0FF120011E4FB62
:10093400FA7980783F1202AC6060405E900067E014
:100944002438F582E43400F583E090007FF09000D1
:1009540068E02438F582E43400F583E02402900052
:1009640080F0900069E02438F582E43400F583E0F7
:10097400900081F090006AE02438F582E43400F5B8
:1009840083E0900082F090006BE0FCA3E0FDA3E024
:10099400FEA3E0FF9000421204A0900042E0FCA3FA
:0809A400E0FDA3E0FEA3E0FF6B
:0109AC002228
:041971007F0FDFFE07
:01197500224F
:0A196700EF1F70011E144E70F722EE
:1013DC00D2AF900092E4F0A3EFF0E490007FF09095
:1013EC000092E0FAA3E0FB7C007D64FFAE021204E5
:1013FC005C74382FF58274003EF583E0900080F029
:10140C007C007D0AAF03AE0212045C7C007D0A12E4
:10141C00045C74382DF58274003CF583E0900081F7
:10142C00F0900092E0FEA3E0FF7C007D0A12045CC9
:10143C0074382DF58274003CF583E0900082F0E462
:10144C00A3F0A37421F0900015E02401FBE433FA1F
:10145C007C007D0AAF03FE12045C74382FF5827495
:10146C00003EF583E0900085F07C007D0AAF03AE72
:10147C000212045C74382DF58274003CF583E09004
:04148C000086F022C4
:100F02009000671204A0D2AF900091E0FCE41203BB
:100F120040900067E0F8A3E0F9A3E0FAA3E0FB1237
:100F220002AC400C900092E4F0A37464F0020FC78C
:100F3200900090E0FCE4120340900067E0F8A3E028
:100F4200F9A3E0FAA3E0FB1202AC60025009E490BC
:100F52000092F0A3F0806E900090E0FCE412034057
:100F6200A804A905AA06AB07900067E0FCA3E0FD70
:100F7200A3E0FEA3E0FF120011C004C005C006C03A
:100F820007900090E0FFA3E0C39FFDE49400FCE41F
:100F920012033BA804A905AA06AB07D007D006D0C6
:100FA20005D00412020FE4FBFA79487842120106D6
:100FB200E4FBFA7948784212001512037490009209
:100FC200EEF0A3EFF0E4900083F0900092E0FAA339
:100FD200E0FB7C007D64FFAE0212045C74382FF5E6
:100FE2008274003EF583E0900084F07C007D64AF63
:100FF20003AE0212045C7E007F0ACFCDCFCECCCEF0
:1010020012045C74382FF58274003EF583E0900080
:1010120085F0900092E0FEA3E0FF7C007D0A1204BE
:101022005C74382DF58274003CF583E0900086F004
:01103200229B
:1017EA00438901758CFEE4F58AD28CD2A9C2AFC2B4
:1017FA0092900015F07F0A121708900090EFF07F80
:10180A000B121708900091EFF0A3E4F0A37432F0E2
:01181A0022AB
:101579009000941204A0900092E0FCA3E0FDEC120C
:10158900033B900094E0F8A3E0F9A3E0FAA3E0FBA1
:10159900120015120374900092EEF0A3EFF0D394A9
:1015A90064EE64809480400B900092E4F0A374642C
:1015B900F0800FC3900092E0648094805004E4F0BE
:0B15C900A3F0900092E0FEA3E0FF22E0
:03000B0002151CBF
:10151C00C0E0C083C082C0D075D000C000C005C080
:10152C0006C007758CFE758A0090008FE004F0E011
:10153C00D394644002E4F0900092E0FEA3E0FFC379
:10154C0074649FFFE49EFE90008FE0FDC3EF9D74DA
:10155C0080F86E985004D2928002C292D007D006C6
:0D156C00D005D000D0D0D082D083D0E032A6
:05197600D290D2912285
:1018E000D2907F057E00121967D2917F057E00128B
:0B18F0001967C2907F057E0002196797
:1018FB00C2907F057E00121967D2917F057E001280
:0B190B001967D2907F057E000219676B
:10189B00D2917F057E0012196730900E90006EE09A
:1018AB00C394C85005E004F080EFC2917F057E0021
:0318BB00021967A8
:10191600D2907F057E00121967D2917F057E001254
:0B1926001967C2917F057E000219675F
:0516280090006EEFF0E0
:10162D00C291E4A3F090006EE0FF30E704D2908009
:10163D0002C290EF25E090006EF07F057E0012193A
:10164D0067D2917F057E00121967C2917F057E00DA
:10165D0012196790006FE004F0E0C3940840C6D201
:08166D00907F057E0002196761
:1016C000C2917F057E00121967D2907F057E0012BD
:1016D0001967E490006EF0D2917F057E00121967C1
:1016E00090006FE025E0F0309003E004F0C2917FBD
:1016F000057E0012196790006EE004F0E0C39408C4
:0717000040D590006FE0FFEF
:0117070022BF
:10181B00900067EFF0A3EDF01219761218E07FA09D
:10182B0012162812189B900068E0FF121628121847
:0F183B009B900067E0FF12162812189B0218FB03
:0517080090006CEFF001
:10170D001219761218E07FA012162812189B90005D
:10171D006CE0FF12162812189B1218E07FA112160A
:10172D002812189B1216C090006DEFF012191612A8
:07173D0018FB90006DE0FFB6
:011744002282
:101318007F967E00121967E4FD7F0A12181B7F96DC
:101328007E001219677D017F1412181B7F967E00BC
:101338001219677D027F1E12181B7F967E001219F4
:10134800677D037F2812181B7F967E001219677D20
:10135800047F3212181B7F967E001219677D057F65
:101368003C12181B7F967E001219677D067F461275
:10137800181B7F967E001219677D077F5012181B75
:101388007F967E001219677D087F5A12181B7F9678
:101398007E001219677D097F6412181B7F967E00F4
:1013A8001219677D0A7F1C12181B7F967E0012197E
:1013B800677D0B7F2012181B7F967E001219677DB0
:1013C8000C7F0F12181B7F967E001219677D0D7F08
:0413D8002702181BB5
:1012D00041008E0041008C0041008B0041008700DE
:0412E0004100890040
:10174500900014E0FF700D90007FF0A37421F0A3CA
:10175500742C8010EFB40111E490007FF0A374B8ED
:10176500F0A3742DF0A37425F090008374F1F0A319
:0B17750074F5F0A37401F0E4A3F0226F
:100BAF0090008BE0700D90008EE0FF121708900000
:100BBF0087EFF090001EE0FFB4FF0BE490008DF084
:100BCF0090008804F02290008DE004F0E064016052
:100BDF0003020C9B90008BE07052EF24C8603B1413
:100BEF006041146021146003020CDE900088E0FF66
:100BFF00C3740A9FFFE49400FE90008EE07C002FE8
:100C0F00FFEC3EFE8010900088E0FF90008EE02FFA
:100C1F00FFE433FE7C007D0A805590008B7401F059
:100C2F00020CDE9000127483F0020CDE90001EE0C6
:100C3F0024C8604214604E146023146003020CDE5B
:100C4F00900088E0FFC374649FFFE49400FE90005F
:100C5F0087E07C002FFFEC3EFE7D658012900088C0
:100C6F00E0FF900087E02FFFE433FE7C007D6512EC
:100C7F000407EDF08059900087E0FF90008EE0FDB3
:100C8F0012181B8000E490008BF0804390008DE0E1
:100C9F00D3941E403AE4F0900088E0FCE412034045
:100CAF00E4FBFA79C0783F120106E4FBFA79807809
:100CBF003F120015120374900088EFF0D3940A408E
:100CCF00047F0A8005900088E0FF900088EFF0E431
:100CDF0090007FF0900087E0FF75F064842438F572
:100CEF0082E43400F583E0900080F0EF75F06484C7
:100CFF00E5F075F00A842438F582E43400F583E0DA
:100D0F00900081F0900087E075F00A84743825F028
:100D1F00F582E43400F583E0900082F090008BE0E0
:100D2F00900083700574F1F0800374F5F0900084E7
:100D3F007401F090008EE02401FBE433FA7C007D17
:100D4F000AAF03FE12045C74382FF58274003EF56F
:100D5F0083E0900085F07C007D0AAF03AE021204A1
:100D6F005C74382DF58274003CF583E0900086F0BA
:010D7F002251
:100D800090008BE0700DA3E0240AFF12170890007A
:100D900089EFF090001EE0FFB4FF0BE490008DF0AF
:100DA00090008A04F02290008DE004F0E06401607D
:100DB00003020E6A90008BE07030EF24C8601914B3
:100DC000601F146008146003020EAD800090008C58
:100DD000E0045401F0020EAD90008B7401F0020E9D
:100DE000AD9000127483F0020EAD90001EE024C896
:100DF000604C14606E14601D146003020EAD900010
:100E00008AE0FF900089E0C39FFFD3940A400280EC
:100E1000267F0A802290008AE0FFFD900089E0FE94
:100E20002DFDE433FCC3ED9446EC648094805005C2
:100E3000EE2FFF80027F46900089EFF0806F9000D8
:100E400089E0FF90008CE0240AFD12181B7F0A1233
:100E50001708900090EFF07F0B121708900091EFA9
:100E6000F08000E490008BF0804390008DE0D394FC
:100E70001E403AE4F090008AE0FCE4120340E4FBF8
:100E8000FA79C0783F120106E4FBFA7980783F12C4
:100E9000001512037490008AEFF0D3940540047F8C
:100EA00005800590008AE0FF90008AEFF0900089AD
:100EB000E0FF75F00A8475F00A84743825F0F58235
:100EC000E43400F583E090007FF0EF75F00A84745D
:100ED0003825F0F582E43400F583E0900080F0A33B
:100EE000742DF0A374B8F0A374A9F0A37401F0A357
:100EF000F090008CE0900086600474E5F02274A805
:010F0000F000
:010F010022CD
:1012E400410062004400460000000044004A00003F
:1012F400000044004E000000004400524080000002
:101304004400563D8F5C2944005A3F66666642009D
:031314005E000078
:0815D400900067EEF0A3EFF0B8
:1015DC007F0C121708900069EFF07F0D121708AD01
:1015EC0007900067E0FEA3E0FC90006AF0EEFFA31A
:1015FC00F0900069E0FEECB5061BEFB50517900006
:10160C00627401F07F0A121708AC07E412034090D1
:0B161C0000630204A090006274FFF065
:0116270022A0
:0604D2009000671204A077
:1004D800900046E0FCA3E0FDA3E0FEA3E0FFA3122A
:1004E80004A090004EE0FCA3E0FDA3E0FEA3E0FF23
:1004F8009000461204A090006BE0F8A3E0F9A3E096
:10050800FAA3E0FB900067E0FCA3E0FDA3E0FEA3F4
:10051800E0FF12001190004E1204A0E4FFFE7D805F
:100528007C3F900056E0F8A3E0F9A3E0FAA3E0FBD3
:1005380012001590005AE0F8A3E0F9A3E0FAA3E04E
:10054800FB120015900052E0F8A3E0F9A3E0FAA32B
:10055800E0FB12010690006F1204A0E4FFFEFD7C90
:100568004090005AE0F8A3E0F9A3E0FAA3E0FB12F8
:100578000106E4FBFA7980783F120015C004C00533
:10058800C006C007900052E0FCA3E0FDA3E0FEA374
:10059800E0FF120325D003D002D001D000120106DB
:1005A8009000731204A090005AE0FCA3E0FDA3E0C1
:1005B800FEA3E0FF900052E0F8A3E0F9A3E0FAA35D
:1005C800E0FB1201069000771204A0900046E0FCC0
:1005D800A3E0FDA3E0FEA3E0FF900073E0F8A3E032
:1005E800F9A3E0FAA3E0FB120106C004C005C006A7
:1005F800C00790004EE0FCA3E0FDA3E0FEA3E0FFEF
:1006080090006FE0F8A3E0F9A3E0FAA3E0FB120181
:1006180006D003D002D001D000120015C004C005D6
:10062800C006C00790004AE0FCA3E0FDA3E0FEA3DB
:10063800E0FF900077E0F8A3E0F9A3E0FAA3E0FB7D
:10064800120106D003D002D001D00012001590008C
:100658007B1204A07FCD7ECC7D4C7C3E90007BE05D
:10066800F8A3E0F9A3E0FAA3E0FB1202AC501E9055
:10067800007BE0FCA3E0FDA3E0FEA3E0FFE4FBFABF
:10068800798078BF12001590007B1204A0E4FFFE69
:10069800FD7C3F90007BE0F8A3E0F9A3E0FAA3E03B
:1006A800FB1202AC6020401E90007BE0FCA3E0FD42
:1006B800A3E0FEA3E0FFE4FBFA7980783F1200157F
:1006C80090007B1204A0900092E0FCA3E0FDEC12E5
:1006D800033B90007BE0F8A3E0F9A3E0FAA3E0FB7A
:1006E800120015120374900092EEF0A3EFF0D39469
:1006F80064EE648094804009900092E4F0A37464EE
:10070800F0C3900092E0648094805004E4F0A3F079
:10071800E4900083F0900092E0FAA3E0FB7C007D77
:1007280064FFAE0212045C74382FF58274003EF543
:1007380083E0900084F07C007D0AAF03AE021204CF
:100748005C7C007D0A12045C74382DF58274003CD0
:10075800F583E0900085F0900092E0FEA3E0FF7C36
:10076800007D0A12045C74382DF58274003CF58310
:0C077800E0900086F07F107E27021967D9
:1009AD0090001EE0FFB4FF0BE4900060F0A304F094
:1009BD00020ABF900060E004F0E064016003020AE7
:1009CD007B900062E07073EF24C86049146063147B
:1009DD006022146003020ABF900061E0FFC374102F
:1009ED009FFF74279400FE90005FE02FFF90005E44
:1009FD00E03E8011900061E0FF90005FE02FFF90DE
:100A0D00005EE03400FE7C277D10120407ECF0A39D
:100A1D00EDF0020ABF90001EE0FF90002FE06F7016
:100A2D0003020ABF90005EE0FEA3E0FF1215D402A0
:100A3D000ABF9000127404F08078900062E0FFB459
:100A4D00FF1690001EE0FE90002FE06E6064EE2415
:100A5D00C7600304705C800DEF6401705590001E3B
:100A6D00E024C7704DE4900062F0C2AF8044900066
:100A7D0060E0D3941E403BE4F0A3E0FCE41203409D
:100A8D00E4FBFAF97840120106E4FBFA7980783F2D
:100A9D00120015120374900061EFF0D394F474807A
:100AAD00948140047FF48005900061E0FF90006127
:100ABD00EFF0900062E06003020B5690005EE0FAEA
:100ACD00A3E0FB7C037DE8FFAE0212040774382F10
:100ADD00F58274003EF583E090007FF07C007D642C
:100AED00AF03AE021204077C007D0A1204077438AE
:100AFD002DF58274003CF583E0900080F090005E4F
:100B0D00A3E07C007D0AFFAE021204077C007D0A83
:100B1D0012040774382DF58274003CF583E09000C3
:100B2D0081F07C007D0AAF03AE0212040774382DEC
:100B3D00F58274003CF583E0900082F0A374F1F02F
:100B4D00A37401F0A3F0A3F022900062E0FFB4FFC4
:100B5D001C90007F74FFF0A3F0A3F0A3F0A374B971
:100B6D00F0A37421F0A37423F0E4A3F022EFB401F9
:100B7D0030D2AF1207849000421204A0900063E0BF
:100B8D00FCA3E0FDA3E0FEA3E0FF90006B1204A028
:100B9D00900042E0FCA3E0FDA3E0FEA3E0FF120401
:010BAD00D275
:010BAE002224
:10000E000203E0E86480F8E933E83360110460F03D
:10001E00ED33EC337009E8FCE9FDEAFEEBFF220458
:10002E0060DED3EB9FEA9EE99DE8C2E78CF0C2F753
:10003E0095F0400CE8CCF8E9CDF9EACEFAEBCFFB1F
:10004E001203AB85D0F05804700320D5B3E80470CA
:10005E00075002B2D50203EA92D5EC0460F7E4CC65
:10006E00C0E0C398F8603B94186008400DD0E0FBE8
:10007E000203C2E4FBFAC9FC8028E830E406E4C9B6
:10008E00FBE4CAFCE830E305E4C9CACBFCE854073C
:10009E006010F8C3E913F9EA13FAEB13FBEC13FC47
:1000AE00D8F130F52FC3E49CFCEF9BFFEE9AFEEDEA
:1000BE0099FDD0E0FBEF4E4D4C701222DB03020394
:1000CE00E7EC2CFCEF33FFEE33FEED33FDED30E7C6
:1000DE00EB0203C2EF2BFFEE3AFEED39FDD0E0FB53
:1000EE0050130BBB00030203EAED13FDEE13FEEFFC
:0800FE0013FFEC13FC0203C226
:10010600EC4D6011E8497017ED33EC3304600DE4F3
:10011600FCFFFEFD22E933E8330470F80203E01227
:1001260003AB58046009E4CC248150062850090228
:1001360003EA2840030203E7C0E0EB4A7044B980B3
:1001460006D0E0FB0203D6EF4E701CBD8008EBFF25
:10015600EAFEE9FD80EBE98DF0A4FEE5F00201EF91
:10016600E9CDF9EAFEEBFFEF89F0A4FCE5F0CE89D4
:10017600F0A42EFFE435F0CD89F0A42DFEE435F091
:100186008067EF4E7005BD80D780C3EF8BF0A4ACBF
:10019600F0EE8BF0A42CFCE435F0F8EF8AF0A42CFA
:1001A600E5F038FCE433CB8DF0A42CFCE5F03BF80D
:1001B600EE8AF0A42CFCE5F038F8E433CF89F0A4FD
:1001C6002CFCE5F038CF3400CE89F0A42FFFE5F003
:1001D6003EFEE433C98DF0A42EFEE5F039CD8AF05B
:1001E600A42FFFE5F03EFEE43DFD33D0E0FB5007D3
:1001F6000BBB000F0203EAEC2CFCEF33FFEE33FEE1
:06020600ED33FD0203C20E
:10020C000203EAEC5D046005E8590470030203E0A4
:10021C001203AB580460F6EC4860F2EC7004FDFE7F
:10022C00FF22C860DB2481C85009C39860025006C5
:10023C000203E79850CAF582E9294B4A7005AB8254
:10024C000203D675F0007C1A7880C3EF9BEE9AED12
:10025C0099400DC3EF9BFFEE9AFEED99FDE842F03D
:10026C00DC23ACF0D0E0FFD0E0FED0E0FDAB822090
:10027C00E7101BEB60BAEC2CFCEF33FFEE33FEED1A
:10028C0033FD0203C2E803F830E705C0F075F00057
:10029C00EF2FFFEE33FEED33FD40B830E7C280AAFE
:1002AC0074F8CC6480CCC86480C8F58204604FC3F9
:1002BC00EB9FF5F0EA9E42F0E99D42F0E89C45F098
:1002CC00603C501DE5825FFFE582D313CB5BCBF422
:1002DC002B5582FB50280ABA002409B9002008804B
:1002EC001DE5825BFBE582D313CF5FCFF4C3132FE5
:1002FC005582FF50090EBE00050DBD00010CC3EB6D
:10030C009FF5F0EA9E42F0E99D42F0E89C45F060D2
:09031C0007CC4820E701B3EC22F4
:10032500ED33EC33600A047003BD8004ECB2E7FCE6
:0103350022A5
:1003360075F020800E75F010800575F0087D007E42
:10034600007F003392D530D503120492EC3340106F
:10035600EF33FFEE33FEED33FDEC33FCD5F0ED224B
:0E036600E5F0247EA2D513CC92E7CDCEFF2287
:10037400EDD2E7CD33EC3392D524814006E4FFFE81
:10038400FDFC22FCE4CFCECDCC24E0501174FF80E0
:10039400EDC3CC13CCCD13CDCE13CECF13CF04707D
:0703A400F030D5DE020492E7
:1003AB00E9D2E7C933E833F892D5EDD2E7CD33EC98
:0703BB0033FC5002B2D52211
:1003C200EC30E7100FBF000C0EBE00080DBD00049C
:1003D2000BEB6014A2D5EB13FCED92E7FD2274FF48
:1003E200FCFDFEFF22E480F8A2D574FF13FC7D80A1
:0303F200E480EFB5
:10149C00021874E493A3F8E493A34003F68001F2DA
:1014AC0008DFF48029E493A3F85407240CC8C33351
:1014BC00C4540F4420C8834004F456800146F6DF20
:1014CC00E4800B0102040810204080901253E47E4B
:1014DC00019360BCA3FF543F30E509541FFEE49315
:1014EC00A360010ECF54C025E060A840B8E493A3DC
:1014FC00FAE493A3F8E493A3C8C582C8CAC583CA07
:10150C00F0A3C8C582C8CAC583CADFE9DEE780BEBE
:0113170000D5
:1003F500EF8DF0A4A8F0CF8CF0A428CE8DF0A42E1C
:02040500FE22D5
:10040700BC000BBE0029EF8DF084FFADF022E4CCD9
:10041700F875F008EF2FFFEE33FEEC33FCEE9DECA2
:10042700984005FCEE9DFE0FD5F0E9E4CEFD22EDE8
:10043700F8F5F0EE8420D21CFEADF075F008EF2F32
:10044700FFED33FD4007985006D5F0F222C398FD23
:050457000FD5F0EA22C0
:10045C00C2D5EC30E709B2D5E4C39DFDE49CFCEEBB
:10046C0030E715B2D5E4C39FFFE49EFE120407C328
:10047C00E49DFDE49CFC800312040730D507C3E423
:06048C009FFFE49EFE222A
:0E049200C3E49FFFE49EFEE49DFDE49CFC227B
:0C04A000ECF0A3EDF0A3EEF0A3EFF022CF
:1004AC00D083D082F8E4937012740193700DA3A3DF
:1004BC0093F8740193F5828883E4737402936860F3
:0604CC00EFA3A3A380DFF3
:00000001FF
